{
  "contractName": "TodoList",
  "abi": [
    {
      "anonymous": false,
      "inputs": [
        {
          "indexed": false,
          "internalType": "uint256",
          "name": "id",
          "type": "uint256"
        },
        {
          "indexed": false,
          "internalType": "string",
          "name": "content",
          "type": "string"
        },
        {
          "indexed": false,
          "internalType": "bool",
          "name": "completed",
          "type": "bool"
        }
      ],
      "name": "ItemAdded",
      "type": "event"
    },
    {
      "anonymous": false,
      "inputs": [
        {
          "indexed": false,
          "internalType": "uint256",
          "name": "id",
          "type": "uint256"
        },
        {
          "indexed": false,
          "internalType": "bool",
          "name": "completed",
          "type": "bool"
        }
      ],
      "name": "TaskCompleted",
      "type": "event"
    },
    {
      "constant": true,
      "inputs": [],
      "name": "getTotalCount",
      "outputs": [
        {
          "internalType": "uint256",
          "name": "",
          "type": "uint256"
        }
      ],
      "payable": false,
      "stateMutability": "view",
      "type": "function"
    },
    {
      "constant": false,
      "inputs": [
        {
          "internalType": "string",
          "name": "text",
          "type": "string"
        }
      ],
      "name": "addItem",
      "outputs": [],
      "payable": false,
      "stateMutability": "nonpayable",
      "type": "function"
    },
    {
      "constant": true,
      "inputs": [
        {
          "internalType": "uint256",
          "name": "index",
          "type": "uint256"
        }
      ],
      "name": "getItem",
      "outputs": [
        {
          "internalType": "uint256",
          "name": "",
          "type": "uint256"
        },
        {
          "internalType": "string",
          "name": "",
          "type": "string"
        },
        {
          "internalType": "bool",
          "name": "",
          "type": "bool"
        }
      ],
      "payable": false,
      "stateMutability": "view",
      "type": "function"
    },
    {
      "constant": false,
      "inputs": [
        {
          "internalType": "uint256",
          "name": "id",
          "type": "uint256"
        }
      ],
      "name": "toggleCompleted",
      "outputs": [],
      "payable": false,
      "stateMutability": "nonpayable",
      "type": "function"
    }
  ],
  "bytecode": "0x6080604052600060015534801561001557600080fd5b506105f0806100256000396000f3fe608060405234801561001057600080fd5b506004361061004c5760003560e01c806327e9f294146100515780633129e7731461010c578063455f5024146101c557806356d42bb3146101f3575b600080fd5b61010a6004803603602081101561006757600080fd5b810190808035906020019064010000000081111561008457600080fd5b82018360208201111561009657600080fd5b803590602001918460018302840111640100000000831117156100b857600080fd5b91908080601f016020809104026020016040519081016040528093929190818152602001838380828437600081840152601f19601f820116905080830192505050505050509192919290505050610211565b005b6101386004803603602081101561012257600080fd5b8101908080359060200190929190505050610357565b604051808481526020018060200183151515158152602001828103825284818151815260200191508051906020019080838360005b8381101561018857808201518184015260208101905061016d565b50505050905090810190601f1680156101b55780820380516001836020036101000a031916815260200191505b5094505050505060405180910390f35b6101f1600480360360208110156101db57600080fd5b8101908080359060200190929190505050610454565b005b6101fb61050c565b6040518082815260200191505060405180910390f35b6001600081548092919060010191905055506040518060600160405280600154815260200182815260200160001515815250600080600154815260200190815260200160002060008201518160000155602082015181600101908051906020019061027d929190610516565b5060408201518160020160006101000a81548160ff0219169083151502179055509050507fb5cc7e87bfdd680c418b8128e2336a867e75e04843dbf61146ebc3bc0f10e58f600154826000604051808481526020018060200183151515158152602001828103825284818151815260200191508051906020019080838360005b838110156103185780820151818401526020810190506102fd565b50505050905090810190601f1680156103455780820380516001836020036101000a031916815260200191505b5094505050505060405180910390a150565b6000606060008060008581526020019081526020016000206000015460008086815260200190815260200160002060010160008087815260200190815260200160002060020160009054906101000a900460ff16818054600181600116156101000203166002900480601f0160208091040260200160405190810160405280929190818152602001828054600181600116156101000203166002900480156104405780601f1061041557610100808354040283529160200191610440565b820191906000526020600020905b81548152906001019060200180831161042357829003601f168201915b505050505091509250925092509193909250565b60008082815260200190815260200160002060020160009054906101000a900460ff161560008083815260200190815260200160002060020160006101000a81548160ff0219169083151502179055507fe21fa966ca5cd02748c0752352d18c48165e61cb55b4c29cccf924b5a95fcff18160008084815260200190815260200160002060020160009054906101000a900460ff1660405180838152602001821515151581526020019250505060405180910390a150565b6000600154905090565b828054600181600116156101000203166002900490600052602060002090601f016020900481019282601f1061055757805160ff1916838001178555610585565b82800160010185558215610585579182015b82811115610584578251825591602001919060010190610569565b5b5090506105929190610596565b5090565b6105b891905b808211156105b457600081600090555060010161059c565b5090565b9056fea265627a7a72315820639d55f15cc65353d3c556f40683f18ed6cdde38bd47019234907a7b544da12e64736f6c63430005100032",
  "source": "// SPDX-License-Identifier: MIT\npragma solidity >=0.4.21 <8.10.0;\n\ncontract TodoList {\n  struct listItem {\n    uint id;\n    string text;\n    bool isCompleted;\n  }\n\n  event ItemAdded(\n    uint id,\n    string content,\n    bool completed\n  );\n\n  event TaskCompleted(\n    uint id,\n    bool completed\n  );\n\n  mapping (uint => listItem ) listMap;\n  uint totalCount = 0;\n\n  function getTotalCount() public view returns (uint){\n    return totalCount;\n  }\n\n  function addItem(string memory text) public {\n    totalCount++;\n    listMap[totalCount] = listItem(totalCount, text, false);\n    emit ItemAdded(totalCount, text , false);\n  }\n\n  function getItem(uint index) public view returns (uint, string memory, bool){\n    return (listMap[index].id, listMap[index].text,listMap[index].isCompleted);\n  }\n\n  function toggleCompleted(uint id) public {\n    listMap[id].isCompleted = !listMap[id].isCompleted;\n    emit TaskCompleted(id,listMap[id].isCompleted);\n  }\n}\n",
  "sourcePath": "/Users/dev/projects/dapp1/todoList/contracts/TodoList.sol",
  "compiler": {
    "name": "solc",
    "version": "0.5.16+commit.9c3226ce.Emscripten.clang"
  },
  "schemaVersion": "3.4.4",
  "updatedAt": "2022-01-22T18:16:35.570Z",
  "networkType": "ethereum",
  "devdoc": {
    "methods": {}
  },
  "userdoc": {
    "methods": {}
  }
}